:020000040000FA
:1000000000003A294B340034A200030E8301A10002
:100010000A088A01A0000408CC0046088312810067
:100020000B1E32288B1C32288A30470203181E28E8
:10003000FF30460203181E28C60A26288B304702C6
:10004000031C262800304604031DC6030030480464
:10005000031D2C288A30C800C803C70183128B10E7
:100060000B114C2883128B1E4C280B1D4C28FF3083
:10007000470203183D28D621C70A8B304702031CCC
:1000800044283F30831287008B304802031C4A28E3
:100090008312851683120B114C08840020088A00F5
:1000A0008301210E8300A20E220E09007C3412343B
:1000B000113412347C3400343634493449347F34BA
:1000C0004134003422344134413422341C3400346D
:1000D0001C34223441347F34413400347F34493479
:1000E0004934493441340034013409340934093481
:1000F0007F3400343A344934493441343E34003496
:100100007F340834083408347F34003400344134F8
:100110007F3441340034003401343F3441344034BE
:100120003034003441342234143408347F34003401
:1001300040344034403440347F3400347F3402341F
:100140000C3402347F3400347F34063408343034C5
:100150007F3400343E344134413441343E34003441
:1001600006340934093409347F3400345E342134D0
:10017000513441343E34003446342934193409347E
:100180007F3400343234493449344934263400341D
:10019000013401347F340134013400343F344034BD
:1001A000403440343F3400340F3430344034303441
:1001B0000F3400347F342034183420347F3400343A
:1001C000633414340834143463340034073408348A
:1001D00078340834073400344334453449345134D6
:1001E000613400343E345134493445343E340034B3
:1001F000443442347F344034403400346234513427
:100200004934493446340034223441344934493481
:10021000363400341834143412347F34103400343B
:100220004734453445342934113400343C344A349D
:1002300049344934303400340334013479340534DA
:1002400003340034363449344934493436340034C4
:1002500006344934493429341E340034003400341F
:1002600000340034003400340C341E343C341E346A
:100270000C3400348B30AE000230AF008030000010
:10028000000057220000000083120000B1002F0878
:10029000B0008D30B2000230B3008312000030088D
:1002A000B4003108B500FF30B007031CB1033408B7
:1002B00035040319D22904303207B400B501B50D55
:1002C0003308B5073408AE003508AF0080300000B1
:1002D000000057220000000083120000B7002F0822
:1002E000B6003208AE003308AF00803000000000D6
:1002F00057220000000083120000B900B5002F084B
:10030000B800B40002303207B400B501B50D3308AF
:10031000B5073408AE003508AF008030000000009B
:1003200057220000000083120000B500BB002F0818
:10033000B400BA00831200003608BA003708BB00C8
:10034000FF30B607031CB7033A083B040319CB2957
:100350003808AE003908AF00803000000000782275
:100360000000000083120000BA0034088312031357
:100370008400831383120000351883173A08831210
:100380000313800083120000B80A0319B90AB40AE3
:100390000319B50A9A29063083120000B207031820
:1003A000B30A4D2900000000B12A0800480847069A
:1003B000031DDC29CA01C9014908BC000630AF0091
:1003C0003C08CE22BD004808BC003D083C07BD00EB
:1003D0004A08BC003D07BC008A303C02031CF929D6
:1003E0003C08BD007630BD073D08BE00FD303E072D
:1003F000BC003C084706031D532A4908EA3EBC00DE
:1004000002300318013EBD003C08AE003D08AF00BD
:1004100080307822BE000630AF003E08CE22BC00FD
:10042000BD013C08563EBE000030BF00003003183E
:100430003D0FBF074A083E07BC003F080318013EB6
:10044000BD003C08AE003D08AF0080307822C000FF
:100450003F304005831287004A08BE073F08031853
:10046000013EBF003E08AE003F08AF00803078225A
:10047000BC004039031D0130BE003E0C0318422A67
:1004800083128512031C462A83128516CA0A4A085B
:10049000063A031D562ACA01C90A49080A3A031D29
:1004A000562AC901562A8312870185120800003A8C
:1004B00003195F2A803A0319692AAF0100342E0814
:1004C000840083132F1883170008AF00840A0008E4
:1004D0000800000000008622AD00AE0FAF03AF0A97
:1004E000000000008622AC002D08AF002C08080098
:1004F000003A03197F2A803A0319862A00342E080D
:10050000840083132F188317000808002F088A001F
:100510002E088200080006340034023400344634C9
:1005200000340134003403340034473400340134DF
:100530000034F43402344834003401340034F534E7
:1005400002344934003401340034F63402344A347D
:10055000003401340034F73402344B3400340134B5
:1005600000348312850187018316910185010515E9
:10057000870183128B134608810083168112811133
:1005800001148110011183120B118B168B1083162D
:10059000011383120B168B17CC2A0800831200005C
:1005A000C1002F08C200C3010830C400831200003C
:1005B000411CDC2A4208C307031083120000C10C4F
:1005C0000310C20D4403C500C4004508031DD62A0C
:1005D0004308080005340E340D3413340E3412343D
:1005E00024340834023413348934003400340034A1
:02400E00B43FBD
:00000001FF
